{
  "contractName": "EthName",
  "abi": [
    {
      "inputs": [
        {
          "internalType": "address",
          "name": "_add",
          "type": "address"
        }
      ],
      "name": "readName",
      "outputs": [
        {
          "internalType": "string",
          "name": "",
          "type": "string"
        }
      ],
      "stateMutability": "view",
      "type": "function",
      "constant": true
    },
    {
      "inputs": [
        {
          "internalType": "string",
          "name": "name",
          "type": "string"
        }
      ],
      "name": "setName",
      "outputs": [],
      "stateMutability": "nonpayable",
      "type": "function"
    }
  ],
  "bytecode": "0x608060405234801561001057600080fd5b506104f8806100206000396000f3fe608060405234801561001057600080fd5b50600436106100365760003560e01c8063806df9591461003b578063c47f002714610064575b600080fd5b61004e6100493660046102ac565b610079565b60405161005b919061041e565b60405180910390f35b6100776100723660046102da565b610125565b005b6001600160a01b03811660009081526020819052604090208054606091906100a090610471565b80601f01602080910402602001604051908101604052809291908181526020018280546100cc90610471565b80156101195780601f106100ee57610100808354040283529160200191610119565b820191906000526020600020905b8154815290600101906020018083116100fc57829003601f168201915b50505050509050919050565b8051602080830191909120600081815260019092526040909120546001600160a01b03161561018f5760405162461bcd60e51b81526020600482015260126024820152712730b6b29030b63932b0b23c903a30b5b2b760711b604482015260640160405180910390fd5b3360009081526020819052604080822090516101ab9190610383565b604080519182900390912060008181526001602090815283822080546001600160a01b031916905533825281815292902085519193506101f092909190860190610213565b5050600090815260016020526040902080546001600160a01b0319163317905550565b82805461021f90610471565b90600052602060002090601f0160209004810192826102415760008555610287565b82601f1061025a57805160ff1916838001178555610287565b82800160010185558215610287579182015b8281111561028757825182559160200191906001019061026c565b50610293929150610297565b5090565b5b808211156102935760008155600101610298565b6000602082840312156102bd578081fd5b81356001600160a01b03811681146102d3578182fd5b9392505050565b6000602082840312156102eb578081fd5b81356001600160401b0380821115610301578283fd5b818401915084601f830112610314578283fd5b813581811115610326576103266104ac565b604051601f8201601f19908116603f0116810190838211818310171561034e5761034e6104ac565b81604052828152876020848701011115610366578586fd5b826020860160208301379182016020019490945295945050505050565b600080835482600182811c91508083168061039f57607f831692505b60208084108214156103bf57634e487b7160e01b87526022600452602487fd5b8180156103d357600181146103e457610410565b60ff19861689528489019650610410565b60008a815260209020885b868110156104085781548b8201529085019083016103ef565b505084890196505b509498975050505050505050565b6000602080835283518082850152825b8181101561044a5785810183015185820160400152820161042e565b8181111561045b5783604083870101525b50601f01601f1916929092016040019392505050565b600181811c9082168061048557607f821691505b602082108114156104a657634e487b7160e01b600052602260045260246000fd5b50919050565b634e487b7160e01b600052604160045260246000fdfea2646970667358221220f04682adc608c7a89f059fc5075b3b3954066b52e080fd92de23d9c756e72d1e64736f6c63430008040033",
  "immutableReferences": {},
  "source": "//SPDX-License-Identifier: Unlicense\npragma solidity ^0.8.0;\n\ncontract EthName {\n    mapping(address => string) names;\n    mapping(bytes32 => address) hashNames;\n\n    function readName(address _add) public view returns (string memory) {\n        return names[_add];\n    }\n\n    function setName(string memory name) external {\n        bytes32 hashName = keccak256(bytes(name));\n        require(hashNames[hashName] == address(0), \"Name already taken\");\n        bytes32 currentHash = keccak256(bytes(names[msg.sender]));\n        delete (hashNames[currentHash]);\n        names[msg.sender] = name;\n        hashNames[hashName] = msg.sender;\n    }\n}\n",
  "sourcePath": "/home/jeanjack/WebstormProjects/EthName/contracts/contracts/EthName.sol",
  "compiler": {
    "name": "solc",
    "version": "0.8.4+commit.c7e474f2.Emscripten.clang"
  },
  "schemaVersion": "3.4.3",
  "updatedAt": "2021-11-15T23:03:24.426Z",
  "networkType": "ethereum",
  "devdoc": {
    "kind": "dev",
    "methods": {},
    "version": 1
  },
  "userdoc": {
    "kind": "user",
    "methods": {},
    "version": 1
  }
}